:020000040800F2
:100000000000082011D20008010D0008030D0008AF
:10001000050D0008070D0008090D0008000000008C
:100020000000000000000000000000000B0D0008B0
:100030000D0D0008000000000F0D0008110D000854
:1000400061D2000861D2000861D2000861D20008C4
:1000500061D2000861D2000861D2000861D20008B4
:1000600061D2000861D2000861D2000861D20008A4
:1000700061D2000861D2000861D2000861D2000894
:1000800061D2000861D2000861D2000861D2000884
:1000900061D2000861D2000861D2000861D2000874
:1000A00061D2000861D2000861D2000861D2000864
:1000B00061D2000861D2000861D2000861D2000854
:1000C00061D2000861D2000861D2000861D2000844
:1000D00061D2000861D2000861D2000861D2000834
:1000E00061D2000861D2000861D2000861D2000824
:1000F00061D2000861D2000861D2000861D2000814
:1001000061D2000861D2000861D2000861D2000803
:1001100061D2000861D2000861D2000861D20008F3
:1001200061D2000861D2000861D2000861D20008E3
:1001300061D2000861D2000861D2000861D20008D3
:1001400061D2000861D2000861D2000861D20008C3
:1001500061D2000861D2000861D2000861D20008B3
:1001600061D2000861D2000861D2000861D20008A3
:1001700061D2000861D2000861D2000800000000CE
:1001800061D2000861D2000861D2000861D2000883
:1001900061D2000861D2000861D2000861D2000873
:1001A00061D2000861D2000861D2000861D2000863
:1001B00061D2000861D2000861D2000861D2000853
:1001C00061D2000861D200080000000061D200087E
:1001D00061D2000861D2000861D2000861D2000833
:1001E00061D2000861D2000861D2000861D2000823
:0801F00061D2000861D2000891
:1002000010B5054C237833B9044B13B10448AFF350
:1002100000800123237010BD880000200000000032
:1002200070E1000808B5034B1BB103490348AFF365
:10023000008008BD000000008C00002070E1000874
:1002400053B94AB9002908BF00281CBF4FF0FF313D
:100250004FF0FF3000F072B9ADF1080C6DE904CE3B
:1002600000F006F8DDF804E0DDE9022304B0704791
:100270002DE9F047089E04468846002B4BD18A4260
:10028000154667D9B2FA82F24AB1C2F1200701FAE3
:1002900002F320FA07F7954047EA030894404FEA33
:1002A000154E230CB8FBFEF71FFA85FC0EFB1788D2
:1002B00043EA084307FB0CF1994209D9EB1807F10F
:1002C000FF3080F01B81994240F21881023F2B449D
:1002D0005B1AA4B2B3FBFEF00EFB103344EA0344F6
:1002E00000FB0CFCA44509D92C1900F1FF3380F068
:1002F0000781A44540F2048102382C4440EA0740BB
:10030000A4EB0C0400271EB1D4400023C6E900432F
:100310003946BDE8F0878B4209D9002E00F0EB800A
:100320000027C6E9000138463946BDE8F087B3FA30
:1003300083F7002F47D18B4202D3824200F2FA802A
:10034000841A61EB030301209846002EE0D0C6E931
:100350000048DDE702B9FFDEB2FA82F2002A40F07F
:100360008F80491B4FEA154E1FFA85F80127B1FB14
:10037000FEFC230C0EFB1C1143EA014308FB0CF1AD
:10038000994207D9EB180CF1FF3002D2994200F2E2
:10039000CD808446591AA3B2B1FBFEF00EFB1014B7
:1003A00043EA044408FB00F8A04507D92C1900F1E2
:1003B000FF3302D2A04500F2B6801846A4EB080431
:1003C00040EA0C409FE7C7F1200CBB4022FA0CFE2C
:1003D0004EEA030E01FA07F420FA0CF521FA0CF3A9
:1003E0004FEA1E482543B3FBF8F92C0C08FB1933E0
:1003F0001FFA8EFA44EA034309FB0AF49C4202FA0C
:1004000007F200FA07F10BD91EEB030309F1FF30E5
:1004100080F087809C4240F28480A9F102097344F5
:100420001B1BADB2B3FBF8F008FB103345EA0344E5
:1004300000FB0AFAA24508D91EEB040400F1FF33C1
:100440006BD2A24569D90238744440EA0940A0FB46
:100450000289A4EB0A044C45C2464B4654D351D002
:10046000002E69D0B1EB0A0564EB030404FA0CFC1E
:10047000FD40FC404CEA0505C6E90054002747E76B
:10048000C2F1200320FA03F7954001FA02F021FAA5
:1004900003F34FEA154E3843010CB3FBFEF71FFA86
:1004A00085F80EFB173341EA034107FB08F38B4243
:1004B00004FA02F407D9691807F1FF3C2FD28B42E6
:1004C0002DD9023F2944CB1A81B2B3FBFEF00EFBBB
:1004D000103341EA034100FB08F38B4207D9691846
:1004E00000F1FF3C17D28B4215D902382944C91AB2
:1004F00040EA07473BE73746304609E70746E7E665
:100500001846FBE64145ABD2B8EB020A69EB0E0296
:1005100001381346A4E76046E9E7184695E76746C1
:10052000D1E781467CE702382C4447E7ACF1020C66
:100530002B442FE7384608E73746E9E6704700BF07
:1005400010F8012B11F8013B012A28BF9A42F7D07D
:10055000D01A7047034613F8012B002AFBD1181A52
:10056000013870470000000000000000000000009B
:1005700001F0FF01102A2BDB10F0070F08D010F854
:10058000013B013A8B422DD010F0070F42B3F6D158
:10059000F0B441EA012141EA014122F007047FF071
:1005A00000070023F0E80256083C85EA010586EAC8
:1005B000010685FA47F5A3FA87F586FA47F6A5FA04
:1005C00087F68EB9EED1F0BC01F0FF0102F0070210
:1005D00032B110F8013B013A83EA010313B1F8D1BB
:1005E0000020704701387047002D06BF354603389C
:1005F000073815F0010F07D1013015F4807F02BFD5
:10060000013015F4C03F0130F0BC0138704700BF25
:1006100084B000B589B00DF1280C8CE80F001D994D
:10062000604602F07BFDBDF878300D930AA802F019
:1006300040FB60230193BDF87C30029300230393B9
:1006400005931D9A01A90AA802F09AFB1D990AA810
:1006500002F0B6FC09B05DF804EB04B0704700008E
:100660002DE9F04393B00F469046994608B1002417
:100670001AE05E4C00220121204601F02DFA0022F2
:100680008021204601F028FA00224FF480412046C4
:1006900001F022FAEBE70122114600F1804000F55B
:1006A000013001F019FA0134A74240F29A80A60005
:1006B00058F824504E492846FFF742FF28BB59F806
:1006C00024504C492846FFF73BFF0028E3D04A4915
:1006D0002846FFF735FF78B148492846FFF730FF35
:1006E0000028E0D101224FF4804100F1804000F564
:1006F000013001F0F1F9D6E70122802100F18040BC
:1007000000F5013001F0E8F9CDE73D492846FFF753
:1007100017FF0028C7D159F8065036492846FFF779
:100720000FFF30B334492846FFF70AFF00283CD0BA
:1007300032492846FFF704FF0028B4D1DFF8C8C0CB
:100740000023119343F6ED33109304230F936D466A
:100750000CF110060FCE0FC50FCE0FC50FCE0FC573
:1007600096E8070085E807009CE80F00FFF750FFB8
:1007700099E7DFF894C041F6F653119343F6ED3351
:10078000109304230F936D460CF110060FCE0FC586
:100790000FCE0FC50FCE0FC596E8070085E80700FE
:1007A0009CE80F00FFF734FF7DE7DFF85CC041F6FF
:1007B000F653119346F2A813109304230F936D463A
:1007C0000CF110060FCE0FC50FCE0FC50FCE0FC503
:1007D00096E8070085E807009CE80F00FFF718FF80
:1007E00061E7084813B0BDE8F08300BF0004024091
:1007F0002CEB000858EA00085CEA000860EA0008F0
:1008000064EA000870EA0008040B0020F0B58DB01F
:1008100000240794089409940A940B943A4B1A6B99
:1008200042F004021A631A6B02F004020192019A68
:100830001A6B42F080021A631A6B02F08002029275
:10084000029A1A6B42F001021A631A6B02F001025B
:100850000392039A1A6B42F002021A631A6B02F0B7
:1008600002020492049A1A6B42F008021A631A6B8D
:1008700002F008020592059A1A6B42F040021A63D0
:100880001B6B03F040030693069B204F224644F265
:100890008101384601F020F91D4E224640213046A4
:1008A00001F01AF94FF4005307931A4B0893099477
:1008B00007A9194801F022F801250795022308939A
:1008C00009940A940B9507A9144801F017F844F20B
:1008D00081030793089509940A9407A9384601F003
:1008E0000DF840230793089509940A9407A9304608
:1008F00001F004F8802307930894099407A930466F
:1009000000F0FCFF0DB0F0BD0038024000040240D2
:1009100000180240000011100008024000000240D0
:1009200008B5054B054A92E8030083E8030001215E
:10093000184604F041F808BD500B002088E100087B
:1009400072B6FEE708B50B480B4B03604FF4E1337A
:10095000436000238360C36003610C2242618361B2
:10096000C3610362436202F0E9FE00B908BDFFF70C
:10097000E7FF00BF7C0600200048004008B50B4898
:100980004FF0A0430360062343600222C2600023AD
:10099000036182610122C26103624362C262036336
:1009A00001F0A0F800B908BDFFF7CAFF000700205A
:1009B00000B58FB000230A930B930C930D9307930C
:1009C000089309930093019302930393049305936F
:1009D00006932048204A02604360836043F6ED326C
:1009E000C2600361836102F035F940BB0EA94FF488
:1009F000805341F8103D174802F062FA08BB1548D1
:100A000002F057F9F8B900230793099307A9114891
:100A100002F0D6FBC8B96023009341F6F653019368
:100A2000002302930493042269460A4802F0A8F9BD
:100A300068B9084800F0BEF80FB05DF804FBFFF796
:100A40007FFFFFF77DFFFFF77BFFFFF779FFFFF7E2
:100A500077FF00BF040B00200004004000B5B9B0D0
:100A6000342200212BA80CF03BFC00212691279179
:100A7000289129912A91902202A80CF031FC01F0D2
:100A8000DDF8274B1A6C42F080521A641B6C03F09D
:100A900080530093009B234A136823F4404343F49C
:100AA00080431360136803F440430193019B0123C7
:100AB0002B934FF480332C93022331934FF4800215
:100AC000329204223392D8223492359309223692FC
:100AD00037932BA801F0BAF8E0B90F23269302232D
:100AE0002793A02328934FF4A05329934FF48053C6
:100AF0002A93002126A801F037FB68B90A4B02931C
:100B000000231593219302A801F008FC30B939B0F5
:100B10005DF804FBFFF714FFFFF712FFFFF710FF6C
:100B200000380240007000400001200008B500F0CD
:100B300067F9FFF793FFFFF769FEFFF703FFFFF782
:100B40001DFF02F0B5FFFFF733FF03F01BFFFFF7B8
:100B5000E7FE03F02BF8FCE782B00A4B1A6C42F078
:100B600080521A641A6C02F080520092009A5A6CF9
:100B700042F480425A645B6C03F480430193019B0E
:100B800002B07047003802400268094B9A4200D018
:100B9000704782B003F50D331A6C42F002021A64FA
:100BA0001B6C03F002030193019B02B0704700BF6E
:100BB0000004004000B587B0002301930293039323
:100BC0000493059302680D4B9A4202D007B05DF87A
:100BD00004FB03F50D331A6B42F004021A631B6B1E
:100BE00003F004030093009B8023019302230293EC
:100BF000059301A9024800F081FEE7E700040040E8
:100C00000008024000B589B00023039304930593C4
:100C1000069307930268144B9A4202D009B05DF81C
:100C200004FB03F5F8331A6C42F480221A641A6C40
:100C300002F480220192019A1A6B42F008021A63B0
:100C40001B6B03F008030293029B4FF44073039362
:100C500002230493032306930723079303A903485E
:100C600000F04CFEDAE700BF00480040000C0240F4
:100C700030B589B00023039304930593069307933B
:100C80000368B3F1A04F01D009B030BD1A4C236BFB
:100C900043F001032363236B03F001030093009BE4
:100CA0004FF4E853039302230493032306930A2388
:100CB0000793124D03A9284600F020FE4FF400735D
:100CC000039300230493059303A9284600F016FE1E
:100CD000636B43F080036363636B03F080030193F2
:100CE000019B636C43F480436364636C03F480434F
:100CF0000293029BC8E700BF003802400000024098
:100D0000FEE7FEE7FEE7FEE7FEE770477047704745
:100D100008B500F081F808BD70B50D4616460024F0
:100D200004E0AFF30080287001340135B442F8DBF1
:100D3000304670BD70B51646002405E04D1C08789D
:100D4000AFF3008001342946B442F7DB304670BD72
:100D500003460B4A126842B1094A106803446A46C6
:100D6000934206D8064A13607047054A0549116048
:100D7000F2E7054B0C221A604FF0FF30704700BFBE
:100D8000A400002038720020307200204FF0FF30A5
:100D900070474FF400534B600020704701207047AC
:100DA00000207047034AD2F8883043F47003C2F839
:100DB0008830704700ED00E010B504460E4B1878FF
:100DC0004FF47A73B3FBF0F30C4A1068B0FBF3F006
:100DD00000F08CF868B90F2C01D901200AE000223C
:100DE00021464FF0FF3000F04FF8034B5C600020CD
:100DF00000E0012010BD00BF040000200000002022
:100E000008B5032000F02EF80020FFF7D5FFFFF70C
:100E1000A3FE002008BD0000034A1168034B1B78A5
:100E20000B441360704700BF580B002004000020E3
:100E3000014B1868704700BF580B002038B50446B6
:100E4000FFF7F6FF0546B4F1FF3F02D0044B1B78D5
:100E50001C44FFF7EDFF401BA042FAD338BD00BF92
:100E6000040000200649CB6823F4E0631B041B0C3C
:100E7000000200F4E0600343024A1A43CA6070476C
:100E800000ED00E00000FA0530B4154BDB68C3F359
:100E90000223C3F10704042C28BF04241D1D062DC2
:100EA00014D9033B4FF0FF3505FA04F421EA04019D
:100EB000994005FA03F322EA03031943002807DBEC
:100EC0000901C9B2074B195430BC70470023E9E748
:100ED00000F00F000901C9B2034B1954F4E700BF39
:100EE00000ED00E000E400E014ED00E00138B0F1B6
:100EF000807F0AD2064B5860064AF02182F8231000
:100F00000020986007221A6070470120704700BFD8
:100F100010E000E000ED00E05079137943EA00238F
:100F200007480B50D07893781B0443EA006350784D
:100F300043EA002312781343024A8B50704700BFE4
:100F40004080024044800240016841F218028B5800
:100F500043F400538B507047016841F218028B58DC
:100F600023F400538B507047016841F218028B58EC
:100F700043F002038B507047016841F218028B580E
:100F800023F002038B50704770B59EB0044629B120
:100F90004FF40063C3604FF480438360E369002B28
:100FA00068D14FF48063079321680B68374A1A4071
:100FB000A368E06803430798034343F400731343B3
:100FC0000B6023681D680120FFF738FF23681D6050
:100FD000236840225A6023685D680120FFF72EFFD6
:100FE00023685D60236800259D602368DD602268BA
:100FF000936923F0BE031B041B0C43F08003936131
:1010000023689E690120FFF719FF23689E6123680A
:10101000DD612368DD690120FFF710FF2368DD61D2
:10102000216841F218054B59194A1A40194B1343CC
:101030004B5123685E590120FFF700FF23685E5182
:10104000236803F58053144A1A60236803F580531C
:101050001D680120FFF7F2FE236803F580531D6031
:10106000A369012B09D0626900212046FFF754FFD4
:101070001EB070BD0023079396E7216841F21C0261
:101080008858064B03438B50EDE700BF0F8120FFCC
:10109000233FDEF8040020028020C102400001004E
:1010A00010B582B00446002301930268136843F030
:1010B0000803136003681B6801930120FFF7BEFE5D
:1010C0002368019A1A6002B010BD10B582B00446C0
:1010D000002301930268136843F00403136003685C
:1010E0001B6801930120FFF7A9FE2368019A1A608B
:1010F00002B010BD30B583B00546002301930268ED
:1011000041F21804135943F48013135103681B5917
:1011100001930120FFF792FE2B68019A1A5103B048
:1011200030BD10B582B004460023019302681368F5
:1011300023F00403136003681B6801930120FFF789
:101140007DFE2368019A1A6002B010BD10B582B00E
:101150000446002301930268136823F00803136018
:1011600003681B6801930120FFF768FE2368019A5A
:101170001A6002B010BDF0B490F84540012C31D097
:10118000012480F84540022480F84440C1620024D4
:1011900001E0F96001349C4217D265014F194FF408
:1011A00080164E5140F2F45606FB0426BE60C66916
:1011B0001EB94E5946F440064E515D1EA542E8D96F
:1011C000651C01EB4515FD60E4E7026841F2100380
:1011D000D150012380F84430002380F84530184670
:1011E000F0BC70470220FBE7F0B490F84540012CBA
:1011F0002ED0012480F84540022480F844408162CA
:10120000002401E0E96001349C4214D266018D198A
:101210004FF000478F5144F2F4566E6040F2F4569E
:1012200006FB0426AE605E1EA642EBD9661C01EBEF
:101230004616EE60E7E7026841F20C03D150012345
:1012400080F84430002380F845301846F0BC7047E1
:101250000220FBE790F84530012B00F08580012348
:1012600080F84530022380F84430B1B1C36A1A686F
:10127000002A1ADB30B440F2F45291421DD93B4AA5
:10128000A2FB0142920A40F2F45404FB121404B18E
:101290000132012A11D0002347E0012380F84430B5
:1012A000002280F8452018467047122380F8443009
:1012B000002380F84530012070471A6842F0405200
:1012C0001A60C36AC1F30C015960C26A136843F023
:1012D00000431360C36ADB68C362036841F214020F
:1012E0009A5812F0040F08D041F2140204219950C8
:1012F000026841F204030021D150012380F84430F8
:10130000002380F84530184630BC7047C56A2C6809
:1013100044F080542C6011E0C56A2C6844F000440D
:101320002C60C46AE468C46201339A42D5D9C56AA4
:101330002C6824F040542C60002BE7D0C46A40F2A3
:10134000F4556560541E9C42E6D1C56A2C6844F091
:1013500000542C60064C04FB021404F2F454C56AD9
:10136000C4F30C046C60D7E7022070470BB002ACEA
:101370000CFAFFFF90F84530012B40D0012380F894
:101380004530022380F84430836A1A68002A28DB3B
:101390001A6812F4807F19D0826B01328263012AAD
:1013A00012D043631A68C2F30D42043AC263026B5F
:1013B00092680264DB688362012380F84430002372
:1013C00080F84530184670470363EAE71A6812F45C
:1013D000007F0ED003630022426301228263DB6838
:1013E0008362012380F84430002280F845201846AB
:1013F0007047826B01328263DB688362F1E702200F
:101400007047F8B590F84430DBB2822B33D01646E3
:101410000546822380F844300268136903F01C03F8
:10142000048AE402A4B223438C0104F4F8641C434C
:1014300044F001041461FFF7FBFC074614F0010FB0
:1014400010D0FFF7F5FCC01BB0F5803F02D22B682F
:101450001C69F3E7012385F84430002385F8453003
:10146000032007E02B685B699BB23360012385F89A
:1014700044300020F8BD0220FCE790F84430DBB295
:10148000422B32D070B50546422380F844300068C4
:10149000036903F01C032C8AE402A4B223438C01E9
:1014A00004F4F8641C4344F0030492B242612B68D4
:1014B0001C61FFF7BDFC064614F0010F10D0FFF7CA
:1014C000B7FC801BB0F5803F02D22B681C69F3E7A4
:1014D000012385F84430002385F84530032003E0DC
:1014E000012385F84430002070BD022070470000C1
:1014F00070B582B000230193002800F00C810446EF
:1015000090F84430002B32D0844B5A6C42F4804225
:101510005A645B6C03F480430093009B804B5A68D1
:1015200022F400025A605A68216A0A435A6023680A
:1015300003F580531A6842F001021A60FFF778FC45
:101540000546236803F58052126812F0010F13D08C
:10155000FFF76EFC401BB0F5FA7FF2D9032584F843
:101560004450002384F84530284602B070BD80F80E
:10157000453002F06DFCC7E71D6925F01C0500F041
:10158000A7FE684B0344684A934255D845F00805C6
:1015900023681D614FF4004200212046FFF76DFFD4
:1015A0000546002860D1FF20FFF748FC6368002B48
:1015B00000F09180FFF73CFC064601AA012120467D
:1015C000FFF71FFFFFF734FC801B41F2883398427E
:1015D00052D8019B13F0040FEFD04FF4805200213A
:1015E0002046FFF74AFF002852D1FFF721FC0646AC
:1015F00001AA01212046FFF704FFFFF719FC801B19
:1016000041F2883398424BD8019B13F0200FEFD062
:1016100001AA10212046FFF7F4FE00284CD1019BBF
:1016200013F0040F50D04FF40062E26013F0020F89
:101630004DD00023A3605EE03C4B03443C4A934200
:1016400002D845F00C05A3E73A4B03443A4A9342CB
:101650009ED93A4B03443A4A934202D845F00405D6
:1016600096E745F0100593E701212046FFF78CFC33
:10167000012584F8445077E701212046FFF784FCD8
:10168000012384F84430002384F8453003256BE7B8
:1016900001212046FFF778FC012584F8445063E7D8
:1016A00001212046FFF770FC012384F84430002319
:1016B00084F84530032557E701212046FFF764FCF5
:1016C000012584F844504FE70022E260AEE74FF472
:1016D0008043A3600FE0E268C2F3CF02A368C3F3C4
:1016E0004F031A4300212046FFF7C7FE58B940F6C2
:1016F000FF70FFF7A3FB00212046FFF745FC012305
:1017000084F8443030E701212046FFF73DFC0125F5
:1017100084F8445028E7012526E700BF003802403E
:101720000038014000D3CEFEBFE1E40040F1E9FD06
:101730003F787D0100796CFCFF596202001F0AFAB4
:101740007FF0FA0238B590F84530012B1AD00446E4
:10175000012580F84550022380F84430FFF7A0FCB3
:101760002046FFF7B2FC2046FFF7C4FC2046FFF7F7
:10177000EBFB2046FFF7F8FB84F84450002084F888
:10178000450038BD0220FCE738B590F84530012B04
:101790001AD00446012580F84550022380F84430D1
:1017A000FFF7DAFB2046FFF7E7FB2046FFF7B9FC1F
:1017B0002046FFF79FFC2046FFF7C8FC84F8445002
:1017C000002084F8450038BD0220FCE790F8453041
:1017D000012B00F08E8070B50C460546012380F881
:1017E0004530022380F84430002971D00268136824
:1017F00041491940236860680343A0680343E068D7
:101800000343A86803432069034360690343E8680E
:101810000343A0690343E0690343206A0343606A0A
:101820000343A06A03430B4313602B681E68012027
:10183000FFF704FB2B681E60E36A226B1343626BA5
:101840001343A26B1343E26B1343226C1343626C8A
:101850001343A16C2A680B4353602B685E68012018
:10186000FFF7ECFA2B685E602B68E26C9A602B68DD
:10187000226DDA6029688A6922F0BE021204120C15
:10188000606DA36D43EA0043E06D0343206E0343A4
:10189000606E0343A06E034313438B612B689E6904
:1018A0000120FFF7CBFA2B689E61E36E216F2A6857
:1018B0000B43D3612B68DC690120FFF7BFFA2B686B
:1018C000DC61012385F84430002085F8450070BDB7
:1018D00001680A6822F490428368C0680343134396
:1018E0000B602B681C680120FFF7A8FA2B681C60AE
:1018F000E7E70220704700BF0F8120FF00230F2B76
:1019000000F2E180F0B583B039E0092200E0002266
:10191000B2403A4302346C4E46F824206B4A1468B5
:10192000EA4302EA04064F6817F4803F01D045EA13
:101930000406664C2660646802EA04064F6817F4E1
:10194000003F01D045EA0406604C6660A46802EAE4
:1019500004064F6817F4801F01D045EA04065B4C6B
:10196000A660E46822404E6816F4001F01D045EAE4
:101970000402564CE26001330F2B00F2A2800122D8
:101980009A400C6804EA0205AA42F4D14C68661E2B
:10199000112C18BF012E01D9122C12D186685F00BC
:1019A0000324BC4026EA0406CC68BC40344384606F
:1019B000466826EA02064C68C4F300129A40324395
:1019C0004260C2685F000326BE40F64332408C6826
:1019D000BC401443C4604A68122A18BF022A13D1BB
:1019E000DC08083450F824E003F007024FEA820CC8
:1019F0000F2202FA0CF22EEA020E0A6902FA0CF227
:101A000042EA0E0240F82420026816404A6802F0BA
:101A10000302BA40324302604A6812F0805FAAD0E3
:101A20002B4A546C44F480445464526C02F4804257
:101A30000192019A9C08A61C234A52F8267003F0D2
:101A4000030296000F22B24027EA0207214A904281
:101A50003FF45DAF02F58062904222D002F58062D1
:101A6000904220D002F5806290421ED002F5806242
:101A700090421CD002F5806290421AD002F580623A
:101A8000904218D002F58062904216D002F5806232
:101A9000904214D002F5806290423FF436AF0A22A1
:101AA00036E7012234E7022232E7032230E704223C
:101AB0002EE705222CE706222AE7072228E708223C
:101AC00026E703B0F0BD704700380140003C0140FC
:101AD000003802400000024012B9090481617047D9
:101AE00081617047F0B58BB0002800F0918004460A
:101AF000056890F8BD3323B3032384F8BD33EB6B43
:101B000013F4807F01D100232361206801F0A4FE3B
:101B1000254655F8107B6E460FCD0FC60FCD0FC66C
:101B200095E8030086E80300231D0ECB384601F03C
:101B300055FE58B1022384F8BD33012528460BB069
:101B4000F0BD80F8BC33FFF793F8D5E7002120689B
:101B500001F088FE002315E0D900C81A8200224453
:101B6000012082F83D0082F83C30A2F8423000208B
:101B700082F83F0050649064CA1A910021440865BD
:101B80000133DBB26568AB42E6D3002315E0D80031
:101B9000C11A8A002244002182F8FD1182F8FC312A
:101BA00082F8FF11C2F80412C2F80812C21A90009B
:101BB0002044C0F810120133DBB29D42E7D825461D
:101BC00055F8107B6E460FCD0FC60FCD0FC695E8AA
:101BD000030086E80300231D0ECB384601F088FE83
:101BE000054660B9002384F83830012384F8BD33FA
:101BF000636A012B08D0206801F04CFF9EE70223A6
:101C000084F8BD33012599E7204600F003F8F2E798
:101C1000012593E7024603680121C0F8FC13002068
:101C200082F8F4039A6942F000629A61596D024A9F
:101C30000A435A65704700BF03000010024A136848
:101C400043F480731360704700700040002800F078
:101C5000128270B582B00446036813F0010F29D0D8
:101C6000A24B9B6803F00C03042B1AD09F4B9B687C
:101C700003F00C03082B0FD06368B3F5803F40D00E
:101C8000002B54D1994B1A6822F480321A601A68DA
:101C900022F480221A6039E0944B5B6813F4800FC1
:101CA000EAD0924B1B6813F4003F03D06368002B0B
:101CB00000F0E381236813F0020F75D08B4B9B6813
:101CC00013F00C0F5ED0894B9B6803F00C03082BBC
:101CD00053D0E368002B00F08A80844A136843F0F5
:101CE00001031360FFF7A4F80546804B1B6813F04F
:101CF000020F73D1FFF79CF8401B0228F5D903208F
:101D0000BEE17A4A136843F48033136063682BB3EF
:101D1000FFF78EF80546754B1B6813F4003FC9D1D9
:101D2000FFF786F8401B6428F5D90320A8E1B3F536
:101D3000A02F09D06D4B1A6822F480321A601A68FD
:101D400022F480221A60E1E7684B1A6842F480228C
:101D50001A601A6842F480321A60D7E7FFF768F811
:101D60000546624B1B6813F4003FA3D0FFF760F8F1
:101D7000401B6428F5D9032082E15C4B5B6813F4B7
:101D8000800FA6D1594B1B6813F0020F04D0E368F3
:101D9000012B01D0012073E1544A136823F0F803AA
:101DA000216943EAC1031360236813F0080F46D08A
:101DB000636983B34D4A536F43F001035367FFF7E1
:101DC00037F80546494B5B6F13F0020F37D1FFF729
:101DD0002FF8401B0228F5D9032051E1434A13682C
:101DE00023F0F803216943EAC1031360DCE73F4AAB
:101DF000136823F001031360FFF71AF805463B4B05
:101E00001B6813F0020FCFD0FFF712F8401B022817
:101E1000F5D9032034E1354A536F23F001035367AA
:101E2000FFF706F80546314B5B6F13F0020F06D043
:101E3000FEF7FEFF401B0228F5D9032020E12368AE
:101E400013F0040F7ED0294B1B6C13F0805F1ED162
:101E5000264B1A6C42F080521A641B6C03F08053BC
:101E60000193019B0125224B1B6813F4807F10D046
:101E7000A368012B21D0002B3CD11C4B1A6F22F000
:101E800001021A671A6F22F004021A671AE000258D
:101E9000E9E7174A136843F480731360FEF7C8FF3D
:101EA0000646134B1B6813F4807FE1D1FEF7C0FF99
:101EB000801B6428F5D90320E2E00C4A136F43F03D
:101EC00001031367A3685BB3FEF7B2FF0646074B37
:101ED0001B6F13F0020F34D1FEF7AAFF801B41F2F3
:101EE00088339842F3D90320CAE000BF003802408B
:101EF00000700040052B09D0644B1A6F22F00102DC
:101F00001A671A6F22F004021A67DBE75F4B1A6F39
:101F100042F004021A671A6F42F001021A67D1E711
:101F2000FEF786FF0646594B1B6F13F0020F08D0D1
:101F3000FEF77EFF801B41F288339842F3D90320DD
:101F40009EE0FDB9A369002B00F099804F4A92688A
:101F500002F00C02082A59D0022B19D04B4A136800
:101F600023F080731360FEF763FF0446474B1B6842
:101F700013F0007F48D0FEF75BFF001B0228F5D965
:101F800003207DE0414A136C23F080531364D9E7AA
:101F90003E4A136823F080731360FEF749FF05463D
:101FA0003A4B1B6813F0007F06D0FEF741FF401B41
:101FB0000228F5D9032063E0E369226A1343626AC9
:101FC00043EA8213A26A5208013A43EA0243E26AF0
:101FD00043EA0263226B43EA02732C4A536013689C
:101FE00043F080731360FEF723FF0446274B1B6802
:101FF00013F0007F06D1FEF71BFF001B0228F5D966
:1020000003203DE000203BE0002039E01F4A5268F9
:10201000012B37D002F48003E1698B4201D001200B
:102020002EE002F03F03216A8B4201D0012027E01D
:10203000616A47F6C0731340B3EB811F01D00120E2
:102040001EE002F44031A36A5B08013BB1EB034F91
:1020500001D0012014E002F07063E16AB3EB016F7C
:1020600001D001200CE002F0E042236BB2EB037FD1
:102070000AD0012004E001207047012000E0002088
:1020800002B070BD0120FBE70020F9E700380240F4
:10209000324B9B6803F00C03042B5CD0082B01D05F
:1020A0002F4870472DE9F04B2C4B5A6802F03F0245
:1020B0005B6813F4800F2BD0284B5B68C3F3881345
:1020C0001E4600275C010025E41A65EB0705A901FF
:1020D00041EA9461A001001B61EB0501CB0043EADA
:1020E0005073C400A01943EB07014B0243EAD053DD
:1020F0004402204619460023FEF7A2F8174B5B68FE
:10210000C3F3014301335B00B0FBF3F0BDE8F08B98
:10211000124B5B68C3F388131E4600275C01002541
:10212000E41A65EB0705A90141EA9461A001001BCF
:1021300061EB0501CB0043EA5073C400A01943EBE7
:1021400007018B0243EA905384022046194600237C
:10215000FEF776F8D2E70348704700BF0038024028
:102160000024F40000127A00002800F0A38070B56B
:102170000446524B1B6803F00F038B420CD24F4AAC
:10218000136823F00F030B431360136803F00F036E
:102190008B4201D0012070BD236813F0020F17D0CD
:1021A00013F0040F04D0464A936843F4E05393605D
:1021B000236813F0080F04D0414A936843F4604346
:1021C00093603F4A936823F0F003A0680343936051
:1021D0000D46236813F0010F31D06368012B20D026
:1021E000022B25D0364A126812F0020F64D034490F
:1021F0008A6822F0030213438B60FEF719FE06463D
:102200002F4B9B6803F00C036268B3EB820F16D070
:10221000FEF70EFE801B41F288339842F0D903206E
:10222000B9E7274A126812F4003FE0D10120B2E773
:10223000234A126812F0007FD9D10120ABE71F4B6F
:102240001B6803F00F03AB420CD91C4A136823F040
:102250000F032B431360136803F00F03AB4201D04D
:10226000012098E7236813F0040F06D0144A9368FE
:1022700023F4E053E1680B439360236813F0080FE5
:1022800007D00F4A936823F46043216943EAC103EE
:102290009360FFF7FDFE0A4B9B68C3F30313094AE3
:1022A000D35CD840084B1860084B1868FEF784FDD3
:1022B000002070E70120704701206CE7003C0240DD
:1022C0000038024090E100080000002008000020D3
:1022D000014B1868704700BF0000002008B5FFF7E9
:1022E000F7FF044B9B68C3F38223034AD35CD840B7
:1022F00008BD00BF00380240A0E1000808B5FFF7A4
:10230000E7FF044B9B68C3F34233034AD35CD840D6
:1023100008BD00BF00380240A0E10008F0B583B05E
:102320000446036813F0010F0CD0BC4B9A6822F4EA
:1023300000029A609A68416B0A439A60436BC3B18A
:10234000002600E00026236813F4002F15D0B34ABE
:10235000D2F88C3023F44013E16B0B43C2F88C307D
:10236000E36BB3F5801F06D0002B00F053810025EE
:1023700004E00126E7E70126F6E70025236813F4C9
:10238000801F0FD0A54AD2F88C3023F44003216C73
:102390000B43C2F88C30236CB3F5800F00F03C8106
:1023A00003B90125236813F0807F00D0012613F0C4
:1023B000200F40F03581236813F0100F0CD0974B9D
:1023C000D3F88C2022F08072C3F88C20D3F88C20B4
:1023D000A16B0A43C3F88C20236813F4804F08D004
:1023E0008E4AD2F8903023F44033616E0B43C2F82A
:1023F0009030236813F4004F08D0884AD2F8903008
:1024000023F44023A16E0B43C2F89030236813F4E9
:10241000803F08D0814AD2F8903023F44013E16E17
:102420000B43C2F89030236813F4003F08D07B4A76
:10243000D2F8903023F44003216F0B43C2F8903060
:10244000236813F0400F08D0744AD2F8903023F07C
:102450000303616C0B43C2F89030236813F0800FC4
:1024600008D06E4AD2F8903023F00C03A16C0B43D5
:10247000C2F89030236813F4807F08D0674AD2F8FE
:10248000903023F03003E16C0B43C2F890302368A6
:1024900013F4007F08D0614AD2F8903023F0C003D3
:1024A000216D0B43C2F89030236813F4806F08D07D
:1024B0005A4AD2F8903023F44073616D0B43C2F84E
:1024C0009030236813F4006F08D0544AD2F890304B
:1024D00023F44063A16D0B43C2F89030236813F4DA
:1024E000805F08D04D4AD2F8903023F44053E16D1C
:1024F0000B43C2F89030236813F4005F08D0474ABA
:10250000D2F8903023F44043216E0B43C2F8903050
:10251000236813F4800F08D0404AD2F8903023F09B
:102520008063A16F0B43C2F89030236813F4001F3F
:102530000DD03A4AD2F8903023F00063E16F0B439C
:10254000C2F89030E36FB3F1006F00F0CF802368E2
:1025500013F0080F00D0012513F4802F08D02F4A64
:10256000D2F8903023F04073616F0B43C2F8903083
:10257000236813F4000F09D0284AD2F8903023F0D2
:102580008053D4F880100B43C2F89030236813F0C6
:10259000806F09D0214AD2F8903023F00053D4F84C
:1025A00084100B43C2F89030236813F0006F09D0F9
:1025B0001A4AD2F88C3023F00073D4F888100B43F9
:1025C000C2F88C30236813F0805F09D0134AD2F828
:1025D0008C3023F08063D4F88C100B43C2F88C301D
:1025E00026B9236813F0007F00F000810B4A1368BE
:1025F00023F080631360FEF71BFC0646074B1B6845
:1026000013F0006F74D0FEF713FC801B6428F5D91B
:102610000320EDE00125B1E60126C1E600380240C5
:10262000B84B1A6C42F080521A641B6C03F0805352
:102630000193019BB44A136843F480731360FEF75F
:10264000F7FB0746B04B1B6813F4807F06D1FEF7FB
:10265000EFFBC01B6428F5D90320C9E0A94B1B6F11
:1026600013F4407315D0226B02F440729A4210D0DA
:10267000A44B1A6F22F44072196F41F4803119672C
:10268000196F21F4803119671A671B6F13F0010F5E
:1026900012D1236B03F44072B2F5407F1DD0994AEA
:1026A000936823F4F813936096490B6F226BC2F37F
:1026B0000B0213430B677EE6FEF7BAFB0746914B0E
:1026C0001B6F13F0020FE4D1FEF7B2FBC01B41F207
:1026D00088339842F3D903208AE08A48826822F43A
:1026E000F8128A4919400A438260DDE701252EE786
:1026F000236813F0010F13D0636B8BB9814AD2F8B2
:102700008430D2F88410606803F4403343EA8013C5
:1027100001F070610B43A16843EA0173C2F8843091
:10272000236813F4002F03D0E26BB2F5801F06D0AC
:1027300013F4801F1ED0236CB3F5800F1AD1714A99
:10274000D2F88430D2F88410606803F4403343EA4E
:102750008013E06843EA006301F0E0410B43C2F8F4
:102760008430D2F88C3023F01F03616A01390B43A7
:10277000C2F88C30236813F0807F11D0614AD2F800
:102780008400D2F88410666823691B0443EA861328
:1027900000F07060034301F0E0410B43C2F8843065
:1027A000236813F0007F0DD0626823691B0443EA9D
:1027B0008213E26843EA0263A26843EA0273514A61
:1027C000C2F884304F4A136843F080631360FEF709
:1027D0002FFB06464B4B1B6813F0006F06D1FEF72C
:1027E00027FB801B6428F5D9032001E015B90020E0
:1027F00003B0F0BD434A136823F080531360FEF723
:1028000017FB05463F4B1B6813F0005F06D0FEF731
:102810000FFB401B6428F5D90320E9E7236813F474
:10282000002F01D0E26B22B113F4801F1DD0236C66
:10283000DBB9344AD2F88830D2F88810606903F4E2
:10284000403343EA8013A06943EA006301F0E041AA
:102850000B43C2F88830D2F88C3023F4F853A16AC5
:10286000013943EA0123C2F88C30236813F4001FB6
:1028700003D0E36FB3F1006F31D0236813F0080F7A
:1028800019D0204AD2F88810D2F88830606903F451
:10289000403343EA801301F070610B43E16943EA7E
:1028A0000173C2F88830D2F88C3023F44033E16AE7
:1028B0000B43C2F88C30134A136843F08053136003
:1028C000FEF7B6FA04460F4B1B6813F0005F1FD1EA
:1028D000FEF7AEFA001B6428F5D9032088E7094A01
:1028E000D2F88800D2F888106569236A1B0443EA8D
:1028F000851300F07060034301F0E0410B43C2F820
:102900008830BAE70038024000700040FFFCFF0F3B
:1029100000206DE770B4036A23F001030362036AC9
:1029200042688569124C2C400D68254323F002044F
:102930008B6823430F4C104EB04218BFA0420CBF0F
:102940000124002405D123F00803CE68334323F08B
:1029500004032CB122F440724C6914438A69224367
:10296000426085614A684263036270BC704700BF81
:102970008CFFFEFF000001400004014070B4036AB8
:1029800023F480730362036A4268C569144C2C40C7
:102990000E68264323F400738C6843EA0423114C29
:1029A000114DA84218BFA0420CBF0124002406D13B
:1029B00023F40063CD6843EA052323F480633CB12C
:1029C00022F440524C6942EA04128C6942EA041231
:1029D0004260C6614A68C263036270BC704700BF50
:1029E0008CFFFEFF000001400004014070B4036A48
:1029F00023F480530362036A4468C5690D4A2A4080
:102A00000D6842EA052223F400538D6843EA05333A
:102A1000094E0A4DA84218BFB04204D124F48044A4
:102A20004D6944EA85144460C2614A6802640362E5
:102A300070BC7047FF8CFFFE0000014000040140A5
:102A400070B4036A23F480330362036A4268446DFE
:102A50000D4D25400C682C4323F400338D6843EA68
:102A600005430A4E0A4DA84218BFB04204D122F4D1
:102A700080324D6942EA0522426044654A688265B7
:102A8000036270BC704700BF8FFFFEFF0000014073
:102A90000004014070B4036A23F480130362036AE4
:102AA0004468456D0D4A2A400D6842EA052223F428
:102AB00000138D6843EA0553094E0A4DA84218BF1A
:102AC000B04204D124F480244D6944EA8524446052
:102AD00042654A68C265036270BC7047FF8FFFFEA3
:102AE000000001400004014010B4036A046A24F0AD
:102AF00001040462846924F0F00444EA021223F021
:102B00000A030B43826103625DF8044B704710B403
:102B1000036A23F0100303628469036A24F4704497
:102B200044EA023223F0A00343EA01138261036204
:102B30005DF8044B7047836823F07003194341F03C
:102B4000070181607047704770B403683A4CA04237
:102B500014BF00240124B0F1804F14BF224644F07A
:102B60000102AAB9354DA84214BF00250125344EF3
:102B7000B0420DD065B905F1804505F58235A84212
:102B800014BF0025012506F50066B04200D01DB136
:102B900023F070034D682B43002A33D1274A90421B
:102BA00014BF00220122264DA8422BD052BB02F1B5
:102BB000804202F58232904214BF0022012205F5C4
:102BC0000065A8421ED0EAB91E4A904214BF0022F6
:102BD000012205F59A35A84214D09AB91A4A9042B2
:102BE00014BF0022012205F50065A8420AD04AB9A7
:102BF000164A904214BF00220122A5F59635A8423C
:102C000000D01AB123F44073CA68134323F0800341
:102C10004A69134303608A68C2620A6882620C4B85
:102C2000984214BF234644F001030BB10B690363C0
:102C30000123436170BC7047000001400008004060
:102C40000004004000440140001800400020004003
:102C50000004014058B310B5044690F83D300BB362
:102C6000022384F83D30211D2068FFF76DFF01230A
:102C700084F8483084F83E3084F83F3084F840309F
:102C800084F8413084F8423084F8433084F844308A
:102C900084F8453084F8463084F8473084F83D3075
:102CA000002010BD80F83C30FDF76EFFD8E7012012
:102CB000704758B310B5044690F83D300BB302236B
:102CC00084F83D30211D2068FFF73EFF012384F882
:102CD000483084F83E3084F83F3084F8403084F83F
:102CE000413084F8423084F8433084F8443084F82A
:102CF000453084F8463084F8473084F83D30002071
:102D000010BD80F83C30FFF71EFFD8E70120704768
:102D100070B4036A23F010030362036A4268856992
:102D2000144C2C400D6844EA052523F020038C68E0
:102D300043EA0413104C114EB04218BFA0420CBF1E
:102D40000124002406D123F08003CE6843EA061351
:102D500023F040033CB122F440624C6942EA840211
:102D60008C6942EA8402426085614A688263036238
:102D700070BC7047FF8CFFFE000001400004014062
:102D800038B590F83C30012B00F08C800D4604469D
:102D9000012380F83C30142A1ED8DFE802F00B1D16
:102DA0001D1D211D1D1D351D1D1D481D1D1D5C1DCD
:102DB0001D1D6F000068FFF7ADFD2268936943F0A9
:102DC000080393612268936923F0040393612268E6
:102DD000936929690B439361002084F83C0038BD56
:102DE0000068FFF795FF2268936943F400639361DD
:102DF0002268936923F48063936122689369296947
:102E000043EA01239361E7E70068FFF7B7FD226813
:102E1000D36943F00803D3612268D36923F0040324
:102E2000D3612268D36929690B43D361D4E7006871
:102E3000FFF7DCFD2268D36943F40063D3612268A5
:102E4000D36923F48063D3612268D369296943EA93
:102E50000123D361C0E70068FFF7F2FD2268536DDC
:102E600043F0080353652268536D23F00403536550
:102E70002268536D29690B435365ADE70068FFF77E
:102E800009FE2268536D43F4006353652268536D55
:102E900023F4806353652268536D296943EA012353
:102EA000536599E702209AE710B4846824F47F44BC
:102EB00042EA03230B43234383605DF8044B7047CE
:102EC00090F83C30012B64D010B50446012380F803
:102ED0003C30022380F83D30026890682E4B03405E
:102EE00093600B68402B4AD013D9602B3DD01ED97C
:102EF000702B28D0B3F5005F30D1CB684A68896861
:102F00002068FFF7D1FF2268936843F48043936001
:102F100024E0102B06D004D9202B03D0302B01D075
:102F20001CE0DBB919462068FFF705FE16E0502BC0
:102F300014D1CA6849682068FFF7D6FD502120687F
:102F4000FFF7F9FD0AE0CB684A6889682068FFF757
:102F5000ABFF2268936843F077039360012384F802
:102F60003D30002084F83C0010BDCA6849682068E4
:102F7000FFF7CDFD60212068FFF7DDFDEEE7CA68B1
:102F800049682068FFF7B0FD40212068FFF7D3FDB6
:102F9000E4E70220704700BF8800FEFF10B401F094
:102FA0001F01012303FA01F4036A23EA0403036205
:102FB000036A8A40134303625DF8044B70470000C4
:102FC0000A46002945D190F83E30DBB213F1FF33B9
:102FD00018BF0123002B40F0968010B5002A68D15D
:102FE000022380F83E301146044601220068FFF7B4
:102FF000D5FF23684649474A934218BF8B4203D105
:103000005A6C42F400425A642368414AB3F1804F3B
:1030100018BF934269D0A2F57C42934265D002F575
:103020008062934261D002F5806293425DD002F5E6
:103030007842934259D002F57052934255D0A2F58E
:103040009432934251D01A6842F001021A60002073
:1030500058E004290DD0082913D00C2919D01029C3
:103060001FD090F84330DBB213F1FF3318BF0123B8
:10307000B0E790F83F30DBB213F1FF3318BF012304
:10308000A8E790F84030DBB213F1FF3318BF0123FB
:10309000A0E790F84130DBB213F1FF3318BF0123F2
:1030A00098E790F84230DBB213F1FF3318BF0123E9
:1030B00090E7042A09D0082A0BD00C2A0DD0102A38
:1030C0000FD0022380F843308DE7022380F83F3091
:1030D00089E7022380F8403085E7022380F84130F9
:1030E00081E7022380F842307DE799680A4A0A4066
:1030F000062A18BFB2F5803F07D01A6842F00102D5
:103100001A60002010BD012070470020FAE700BFC0
:1031100000000140000401400700010038B50446EA
:103120000D4600220068FFF739FF23682249234A31
:10313000934218BF8B420DD1196A41F2111211420C
:1031400008D1196A40F24442114203D15A6C22F468
:1031500000425A642368196A41F21112114208D1DF
:10316000196A40F24442114203D11A6822F0010266
:103170001A605DB1042D0ED0082D10D00C2D12D088
:10318000102D14D0012384F8433002E0012384F889
:103190003E30002038BD012384F83F30F9E7012399
:1031A00084F84030F5E7012384F84130F1E701234A
:1031B00084F84230EDE700BF000001400004014008
:1031C00090F83C30012B45D070B4012380F83C309E
:1031D000022380F83D3003685A689D681E4E1F4CDC
:1031E000A34218BFB34203D122F470024C682243B9
:1031F00022F070020C6822435A600368164AB3F149
:10320000804F18BF934217D0A2F57C42934213D04F
:1032100002F5806293420FD002F5806293420BD098
:1032200002F57842934207D002F57052934203D0E0
:10323000A2F59432934204D125F080058A681543A3
:103240009D60012380F83D30002380F83C30184613
:1032500070BC70470220704700000140000401402C
:1032600010B5044683680269134342691343C26977
:10327000134301680868984A024013430B602268B0
:10328000536823F44053E1680B435360A269236AF7
:103290001A4321688B6823F4306313438B602368DF
:1032A0008E4A934218D08E4A934228D08D4A934238
:1032B0003DD08D4A934250D08C4A934262D08C4A82
:1032C000934277D08B4A934200F08C808A4A934293
:1032D00000F0A0801023B6E0884BD3F8903003F0C4
:1032E0000303032B09D8DFE803F00204AD06012332
:1032F000A9E00423A7E00823A5E01023A3E07F4B67
:10330000D3F8903003F00C030C2B0ED8DFE803F059
:10331000070D0D0D090D0D0DA80D0D0D0B00002352
:1033200091E004238FE008238DE010238BE0734BA2
:10333000D3F8903003F03003102B0AD006D9202B9D
:1033400000F09080302B06D108237CE01BB90023CD
:1033500079E0042377E0102375E0684BD3F89030D0
:1033600003F0C003402B09D005D9802B7CD0C02BA3
:1033700006D1082367E01BB9002364E0042362E060
:10338000102360E05D4BD3F8903003F44073B3F545
:10339000807F0BD007D9B3F5007F67D0B3F5407FAE
:1033A00006D108234FE01BB900234CE004234AE078
:1033B000102348E0514BD3F8903003F44063B3F549
:1033C000806F0BD007D9B3F5006F51D0B3F5406FC4
:1033D00006D1082337E01BB9012334E0042332E08F
:1033E000102330E0454BD3F8903003F44053B3F54D
:1033F000805F0BD007D9B3F5005F3BD0B3F5405FDA
:1034000006D108231FE01BB900231CE004231AE0A7
:10341000102318E0394BD3F8903003F44043B3F550
:10342000804F0BD007D9B3F5004F25D0B3F5404FEF
:1034300006D1082307E01BB9002304E0042302E0BF
:10344000102300E00223E269B2F5004F16D0082BEA
:103450007FD8DFE803F0596F577E727E7E7E75005D
:103460000223F0E70223EEE70223ECE70223EAE778
:103470000223E8E70223E6E70223E4E7082B62D809
:10348000DFE803F0082228612561616105004FF43F
:10349000004003E0FEF722FF002856D06268530880
:1034A00003EB4003B3FBF2F39BB2A3F110014FF621
:1034B000EF7291424BD823F00F02C3F34203134340
:1034C0002268D360002031E0FEF718FFE4E7FEF742
:1034D000DFFDE1E70A48E1E7F369FFEF0010014093
:1034E0000044004000480040004C004000500040B4
:1034F0000014014000780040007C00400038024089
:103500000024F400164802E0FEF7E8FE18B36368F2
:1035100000EB5300B0FBF3F080B2A0F110024FF6C5
:10352000EF739A4219D82368D8600020002363669D
:10353000A36610BDFEF7E2FEE8E7FEF7A9FDE5E7AA
:103540004FF40040E3E70120F0E70020EEE7012020
:10355000ECE70120EAE70020E8E70120E6E700BF0A
:103560000024F400436A13F0010F06D00268536888
:1035700023F40033816A0B435360436A13F0020F54
:1035800006D00268536823F48033C16A0B4353604A
:10359000436A13F0040F06D00268536823F48023B3
:1035A000016B0B435360436A13F0080F06D00268A7
:1035B000536823F40043416B0B435360436A13F099
:1035C000100F06D00268936823F48053816B0B437D
:1035D0009360436A13F0200F06D00268936823F4C7
:1035E0000053C16B0B439360436A13F0400F0AD042
:1035F0000268536823F48013016C0B435360036C1F
:10360000B3F5801F0BD0436A13F0800F06D0026819
:10361000536823F40023816C0B43536070470268A6
:10362000536823F4C003416C0B435360EBE72DE96F
:10363000F04104460F4616469846069D2368DB690E
:1036400037EA03030CBF01230023B3423BD1B5F19A
:10365000FF3FF3D0FDF7ECFBA0EB0800A84220D819
:10366000FDB123681A6812F0040FE7D0DA6912F48A
:10367000006FE3D04FF400621A622268136823F4EB
:10368000D07313602268936823F0010393602023B2
:10369000A367E367C4F88030002384F87430032004
:1036A00012E02268136823F4D073136022689368D1
:1036B00023F0010393602023A367E367002384F8CA
:1036C0007430032000E00020BDE8F08130B583B005
:1036D00004460023C0F88030FDF7AAFB05462368A6
:1036E0001B6813F0080F0DD123681B6813F0040F3B
:1036F00016D12023A367E3670020206684F87400B6
:1037000003B030BD6FF07E430093034600224FF4B8
:1037100000112046FFF78BFF0028E5D00320EFE7DC
:103720006FF07E4300932B4600224FF48001204629
:10373000FFF77DFF0028DCD00320E1E768B310B578
:103740000446836F03B32423A3672268136823F01E
:10375000010313602046FFF783FD012813D0636A3D
:10376000BBB92268536823F490435360226893687E
:1037700023F02A0393602268136843F00103136067
:103780002046FFF7A3FF10BD80F87430FDF73AFA2A
:10379000D9E72046FFF7E6FEE3E701207047000087
:1037A000002301330C4A934211D80269002AF8DA47
:1037B000036943F00103036100230133064A934286
:1037C00007D8026912F0010FF7D1002070470320DB
:1037D00070470320704700BF400D030084B010B550
:1037E000044603A880E80E00089B012B1DD1A36BA3
:1037F00023F48033A363E268164B1340E360E3686D
:1038000023F44013E3600F9B012B09D02046FFF700
:10381000C7FF069B012B14D0BDE8104004B07047D1
:10382000E36843F48013E360F0E7E36843F04003A8
:10383000E3602046FFF7B4FFA36B43F48033A36338
:10384000E7E7A36843F00603A360A36843F02003FF
:10385000A360E1E7BFFFBDFF836823F0010383603E
:103860000020704708B5C36823F0C043C360012936
:1038700009D069B9C36843F08043C3603220FDF7C3
:10388000DDFA002008BDC36843F00053C360F5E7CC
:103890000120F7E7890141F0200101610023013394
:1038A000054A934205D8026912F0200FF7D1002093
:1038B00070470320704700BF400D030010230361D1
:1038C00000230133054A934205D8026912F0100F14
:1038D000F7D1002070470320704700BF400D030060
:1038E000D0F800381943C0F80018002070470000D5
:1038F00084B02DE9F041044607A880E80E00254673
:10390000002306E003F1400204EB82020021516033
:1039100001330E2BF6D9119B33BBD4F8043843F096
:103920000203C4F80438A36B23F40013A3632368D1
:1039300043F040032360236843F0800323600023A7
:10394000C4F8003E04F50066D4F80038C4F8003826
:103950000C9B012B0DD0032B1CD1099BABB9002173
:103960002046FFF7BDFF19E0A36B43F40013A363E8
:10397000E5E7099B23B900212046FFF7B1FF0DE0E1
:1039800001212046FFF7ACFF08E001212046FFF7A8
:10399000A7FF03E003212046FFF7A2FF10212046E6
:1039A000FFF778FF804608B14FF001082046FFF787
:1039B00085FF08B14FF00108002333617361F361A3
:1039C0000AE0C3B94FF00060C2F8000900220A61A2
:1039D0004FF67F328A6001330799994210D905EB7F
:1039E000431202F51061D2F800090028E9DB00203B
:1039F000C2F80009EAE74FF09040C2F80009E5E795
:103A000000230AE0BBB14FF09047C2F8007B0022D0
:103A100002614FF67F3282600133994210D905EB83
:103A2000431202F53060D2F8007B002FEADB00275A
:103A3000C2F8007BEBE74FF00067C2F8007BE6E7D7
:103A4000336923F4807333610023A3616FF08043F3
:103A500063610A9B1BB9A36943F01003A361A269C8
:103A60000A4B1343A3610D9B1BB1A36943F00803E9
:103A7000A361119B012B04D04046BDE8F04104B086
:103A80007047A269024B1343A361F5E700383C80FD
:103A900004000040D0F8003E23F00303C0F8003ECD
:103AA000D0F8043843F00203C0F80438002070470F
:103AB00010B584B000F0DCFF3448027843781B0472
:103AC00043EA0263827843EA0223C27813431A026C
:103AD00002F47F0242EA0362190A01F47F410A43B9
:103AE00042EA13632A490B60027943791B0443EAD3
:103AF0000263827943EA0223C27913431A0202F471
:103B00007F0242EA03621C0A04F47F44224342EA31
:103B10001363204A1360047A437A1B0443EA046364
:103B2000847A43EA0423C07A0343180200F47F0036
:103B300040EA03601C0A04F47F44204340EA136017
:103B4000154B1860154C164802901648019000203D
:103B50000090204601F07EFB204601F00DFC94F819
:103B6000313013F0040F0CD10C4801F029FC0B4C40
:103B70000D49204601F044FC204607F0D7FD04B073
:103B800010BD204601F0FEFBF1E700BF0C00002055
:103B9000940B0020980B00209C0B00205C0B002055
:103BA000F9D00008813F0008D53F000808B5034858
:103BB00000F0D6F906F0FEF808BD00BF5C0B00204F
:103BC0002DE9F0473348FDF7D5FB00285ED1314B96
:103BD000998FD3F8409029B94FF000082D4B1B6BFB
:103BE00000213AE04FF4C17201F082FD80460028C6
:103BF000F4D0284B1F6B8246002421E0DAF8040041
:103C000040F2F452121B09EB0401304409F05DFB51
:103C1000FF68D7F80890A5F2F452361B06F2F45666
:103C20000024A51840F2F4539D42E7D8DAF80400C6
:103C300009EB0401304409F048FBDAF800A02C46F7
:103C4000BAF1000FCAD0BAF80A200026E9E71A68CC
:103C500042F000421A60DB6801310E4A926B8A42E0
:103C6000F5D80C4B00229A631B6841F214029A5853
:103C700012F0800F07D041F214028021995041F2D6
:103C80000802002199504046BDE8F0874FF0000837
:103C9000F9E700BF702400202DE9F84F8B462C4B2C
:103CA000DE6AD6F808A000242746BBF1000F32D008
:103CB0003368002B35DBBBF80A90002504EB0908BC
:103CC00040F2F453984519D9DBF8041040F2F4524D
:103CD000121B29440AEB040009F0F7FAF66833686E
:103CE000002B21DBD6F808A0A8F2F4592D1B05F211
:103CF000F4553F1B07F2F4570024DFE7DBF804100C
:103D00004A4629440AEB040009F0DFFA4F44DBF885
:103D100000B04446C9E739460D48FDF79BFA00203C
:103D200004E06FF0070001E06FF00700084B1B682C
:103D300041F214029A5812F0200F07D041F21402F7
:103D40002021995041F2040200219950BDE8F88FDA
:103D50007024002030B585B0044600230393364814
:103D6000364A0260012242604FF4804282604FF482
:103D70000062C26003828DF8043080228DF8052035
:103D8000E1228DF806208DF807308DF808308DF887
:103D9000093001AA42618361C3614FF400030362E9
:103DA000FDF7A6FB28B994F8313043F0040384F8FA
:103DB0003130214D0423224A22492846FDF7DBF900
:103DC0000423214A21492846FDF70EFA062384F8E8
:103DD00030306B691A7884F82A205A7884F82B20BE
:103DE0009A7884F82C20DA7884F82D201A7984F8CF
:103DF0002E205B7984F82F3040F2DC53238594F831
:103E0000313043F00A0384F831302846FDF79AFC3C
:103E100003AA1D212846FDF7F4FA039A42F00B028B
:103E200003921D212846FDF728FB03AA1D212846E1
:103E3000FDF7E7FA05B030BD702400200080024095
:103E4000B8240020A00B0020200C0020F02300202C
:103E5000F0B58DB000230793089309930A930B9351
:103E600002683A4B9A4201D00DB0F0BDA3F59043E1
:103E70001A6B42F000721A631A6B02F00072009221
:103E8000009A1A6B42F080621A631A6B02F0806229
:103E90000192019A1A6B42F000621A631A6B02F0E7
:103EA00000620292029A1A6B42F004021A631A6BC1
:103EB00002F004020392039A1A6B42F001021A63A1
:103EC0001A6B02F001020492049A1A6B42F0020289
:103ED0001A631A6B02F002020592059A1A6B42F0FD
:103EE00040021A631B6B03F040030693069B3223C8
:103EF00007930226089603250A950B240B9407A91D
:103F00001348FDF7FBFC86230793089600270997C3
:103F10000A950B9407A90F48FDF7F0FC4FF40053E6
:103F20000793089609970A950B9407A90A48FDF785
:103F3000E5FC4FF420530793089609970A950B94D4
:103F400007A90648FDF7DAFC8EE700BF00800240B3
:103F50000008024000000240000402400018024035
:103F600038B50446FFF72CFE20B1054623692146EB
:103F7000984700B938BD284601F058FBFAE7000021
:103F800010B5044670B1732384F83230742384F87A
:103F90003330084B6361084BA3612046FFF7DAFE1C
:103FA000002010BD054B40F211220549054809F0DB
:103FB0009FF9E8E7D9C00008993C000888EA0008A2
:103FC000A4EA0008B4EA000808B5FCF731FF08BD10
:103FD0007047000030B583B004460023019300937E
:103FE00090F8313013F0040F51D02B4B5B68002B4D
:103FF00035D04FF4805200212748FDF73EFAFCF7F8
:1040000017FF01906A4601212348FDF7FAF9FCF7F2
:104010000FFF019BC01AB0F57A7F20D8009B13F0E8
:10402000200FEFD06A4610211B48FDF7EAF9009BEC
:1040300013F0040F0AD0184A4FF40061D16013F056
:10404000020F07D0144B00229A6013E0124A00219D
:10405000D160F4E7104B4FF480429A600AE00E48BA
:10406000C268C2F3CF028368C3F34F031A4300212F
:10407000FDF703FA084D00212846FDF7A7FB284667
:10408000FDF760FB2046FFF7A3FF03B030BD0248F9
:10409000FDF77AFBF6E700BF7024002070B50D46EF
:1040A000B1FA81F14909002808BF0121B1B90646DA
:1040B0000C4C84B161682846FCF742FA08B12468C8
:1040C000F7E7A3683360E3687360E368B360F060A8
:1040D000237C337401E06FF0050070BD6FF00F00BA
:1040E000FBE700BFA8E10008704742688068101A2B
:1040F0007047000030B338B504460D46012101F089
:10410000DDFF2A461049204601F06EFE50B9FF211E
:10411000204601F03FFF044660B10C49204602F002
:1041200055F838BD0A4B40F657220A490A4809F0AB
:10413000DFF8ECE7064B40F659220849064809F03B
:10414000D7F8EAE7704700BF44EA000815490008BD
:10415000DCEA000814EB0008B4EA000830EB0008C1
:104160002DE9F04105460E461F4690467AB1B8F853
:104170000030002B3BD0B5F86420934200D81A469B
:104180006C8E6400A4B2A24213D8144611E0194BFD
:1041900040F219221849194809F0AAF8E7E7012462
:1041A000B0F1FF3F14BF00230123012C98BF00236F
:1041B000ABB13B4622463146284604F07DFDB0F1C6
:1041C000FF3FEDD1B5F86430002BE8D0B5F866308C
:1041D000082B02D8C4F34F04E2E70124E0E718B14A
:1041E0000023A8F8003003E0A8F8004000E0002019
:1041F000BDE8F081DCEA000850EB0008B4EA0008F2
:1042000010B582B00C464B6A4FF6FE72934213D83B
:104210009BB202AA22F8023D0023A169FFF7A0FF8A
:1042200068B9BDF80610A2690A44A261636A5B1A04
:104230006362012002B010BD4FF6FF73E9E7002072
:10424000F8E710B50446406918B1FFF74DFF0023A9
:104250006361206A18B101F0E9F90023236210BDFF
:1042600038B110B50446FFF7ECFF204600F0E0FC43
:1042700010BD704770B504460D461646002101F08A
:1042800053FF0021204601F053FF0021204601F09A
:1042900083FF00221146204601F0A0FF00212046A6
:1042A00001F060FF15B12846FFF7DAFF56B9204646
:1042B00002F00EFB054648B104220549204601F0F4
:1042C0008DFF03E0204602F019F90025284670BD55
:1042D0009943000808B50022FFF7CCFF08BD08B5D8
:1042E000FFF7F8FF08BD000038B505460C464869E1
:1042F00060B1FFF7FAFE00280DDD0A4B40F29D4247
:1043000009490A4808F0F4FF012038BD2846FFF7A4
:10431000E6FF0020F9E721462846FFF7E0FF0020EE
:10432000F3E700BFDCEA000860EB0008B4EA00082D
:1043300070B5D9B10C4605464B6A1BB9FFF7D4FFDF
:10434000064630B121462846FFF75AFF0646636A03
:104350000BB1304670BD6069FFF7C7FE0028F8DC7E
:1043600021462846FFF7BBFF0026F2E70026F0E7CC
:1043700050B108B503460846002283F828201946A4
:10438000FFF7D6FF002008BD0020704718B108B520
:10439000FFF766FF08BD704710B50C4680B10146B7
:1043A00090F828300133DBB280F82830042B0CD091
:1043B00043691BB12046FFF7BBFF50B9002010BD79
:1043C00000212046FFF786FFF8E72046FFF782FF2F
:1043D000F4E7204605F00AFAF0E70000002945D08E
:1043E00070B50D46164604460B68BBB165612B6877
:1043F000A3616B68002B19DB6B686362002384F890
:10440000283063691B7C13F0010F17D026B1636954
:104410001B7C13F0010F19D1002070BD174B40F623
:104420000B121749174808F063FFDFE7134B40F6FC
:1044300034121549134808F05BFFDDE70F4B40F6D7
:10444000441212490F4808F053FFDFE7626A10492F
:10445000A06900F0E6FA03460028DDD00433A26923
:104460009A1AA361636A9B1A6362D5E700234361CA
:104470008361436280F8283000207047DCEA00083E
:1044800098EB0008B4EA0008ACEB0008CCEB00089D
:10449000F8EB000870B505460C460C49216006464D
:1044A000FFF7FCFD08B9304670BD09492160284678
:1044B000FFF7F4FD0028F6D0064921602846FFF7F3
:1044C000EDFD0028EFD000262660ECE700EC0008A8
:1044D0000CEC000818EC0008F8B500293ED007469F
:1044E0000C460B78002B3BD0002511E02021204604
:1044F00008F04AFF10B10022027020E006461EE0DC
:1045000005F11A0307EB830300225A600135344694
:104510000F2DCCBF00230123002C08BF002303B3C1
:1045200005F10A0307EB83035C602621204608F0AF
:104530002BFF06460028D9D0002306F8013B3D2179
:10454000204608F021FF0028DAD0002300F8013BC4
:1045500005F11A0307EB83035860D7E7002500E055
:1045600000252846F8BD00002DE9F04F85B005462E
:10457000039191460C460846FBF7ECFF20B1074635
:10458000461EA35D2F2B1FD03F21039808F0FCFE91
:10459000074610B1002307F8013B494B1E6C002E63
:1045A0006FD0D3F84480B8F1000F6AD00024A6423F
:1045B00067DD4FEAC40A58F834100398FBF7C0FFD0
:1045C00000284DD00134F2E73D4B9C4207D03F2EEE
:1045D00028BF3F26012F05D14FF000082DE001280C
:1045E000D2D1F4E7DFF8D88032462146404608F0C1
:1045F0006CFE002308F80630EEE7324B53F838A083
:104600005046FBF7A7FF834528BF83462C4C5A46EC
:104610005146A01908F059FEB344002304F80B30AA
:10462000A24602E0274B53F838A02C4651462846B4
:10463000FFF734FD60B108F10108B8F1040F0AD8A2
:10464000012FEFD0D6F13F0BD7D1DFF874A0ECE704
:10465000CDF80CA000E00024002C95D0002716E037
:1046600039462846FFF738FF154B5B6C9A44DAF859
:10467000046005F16C0305F12C0201462046B047A9
:1046800003902C4603992846FFF708FD60B98CB1CA
:10469000019700230093039B4A4621462846FFF7D3
:1046A0009DFE05B0BDE8F08F03A92846FFF7F2FE96
:1046B0000446ECE703A92846FFF7ECFE0446E7E7CB
:1046C000AC00002004E900082DE9F0470C4605463F
:1046D000002858D0002C5ED06369002B40F0888001
:1046E000A369002B40F08780206A00285BD0294610
:1046F00001F022F9284601F007F9206A0368002B2F
:1047000053D0058940F2FF339D4228BF1D463E4EDF
:1047100000232A46314601F0EFF9062D25D9A94696
:104720002A463A49304600F07CF9F0B10422384973
:10473000304608F036FE8246002839D1F71C06F1D3
:104740000408043DADB22A463249404600F069F9FA
:104750000346002831D0A3EB0805BB4294BF0027D5
:104760000127002B08BF002787BB206A01F0C2F891
:10477000236A1B89B3F5806F40D2052841D96FF0B9
:104780000F00BDE8F087244B40F2AE722349244865
:1047900008F0AEFD9EE7204B40F2AF722149204861
:1047A00008F0A6FD98E72562A4E76E686D89B4E776
:1047B000002333716FF00F00E3E72A4613494046A8
:1047C00000F02FF903464FF0010AC4E74A461649A4
:1047D000304600F026F90028C7D00023F370ADB2B0
:1047E00008F80530524641462046FFF7BDFEC8E7AF
:1047F0006FF00700C5E76FF00700C2E76FF00F002A
:10480000BFE76FF00400BCE7F400002030EC0008C4
:1048100034EC00083CEC0008DCEA0008800F0108DA
:10482000B4EA000824EC0008F8EB0008F8B50546E7
:104830000E461446B2FA82F25209002B0CBF134600
:10484000012353B948B12189304601F0E3FB6B697C
:104850008BB1204600F0EAFE0BE034B121893046EE
:1048600001F0D8FB204600F0E1FE29463046FFF774
:1048700031FD0020F8BD324629462046FFF724FFCF
:104880000746431D18BF0123002814BF1846002007
:1048900038B117F1080318BF012317F1100F00D02A
:1048A000A3B917F1050F05D0286A18B100F0BEFEB4
:1048B00000232B62204600F0B9FE7FB117F1100FE4
:1048C000D7D129463046FFF705FDD2E7064B40F623
:1048D00005220649064808F00BFDE2E72946304666
:1048E000FFF726FDC5E700BFDCEA000840EC000842
:1048F000B4EA000808B5AC22002108F0F1FC08BDBC
:1049000010B5AC2000F0A8FA044608B1FFF7F2FF9A
:10491000204610BD10B50C46B1FA81F14909002AB4
:104920000CBF0A460122F2B90121204601F0C6FB64
:10493000FFF7E6FF0146C8B1C461204601F0F4FB71
:104940000C49204601F0F4FB0B49204601F024FC01
:1049500004220A49204601F041FC0949204601F0A1
:1049600001FC002010BD6FF00500FBE74FF0FF30A9
:10497000F8E700BF2D4800088D4300089943000860
:104980007143000810B52E2001F0F6FE044620B158
:1049900050212046FFF7AEFB10BD044B40F67222BB
:1049A0000349044808F0A4FCF2E700BFDCEA000871
:1049B0006CEC0008B4EA000838B50C46054628B18E
:1049C000002C0BDD094B5D641C6438BD084B40F6C0
:1049D000B2220849084808F08BFCF1E7044B40F686
:1049E000B3220649044808F083FCEBE7AC00002042
:1049F000DCEA000888EC0008B4EA000898EC00083B
:104A0000030A43EA002080B27047030203F47F03E5
:104A100043EA0063020A02F47F42134343EA106050
:104A200070472DE9F04107460D4690460846FBF7D2
:104A300091FDB8B106463C4600E001342278AAB1A7
:104A4000A31907EB08018B420AD82B789342F4D1C3
:104A500032462946204608F0A4FC0028EDD102E0A9
:104A6000002400E03C462046BDE8F0810024FAE73F
:104A700008B500F0C3F800F0EDFA00F0B3FB05F064
:104A800035FA01F08DF905F081F908BD014B1B687D
:104A900018447047F4040020024B1B68C01A80B20F
:104AA000704700BFF4040020F8B50546FFF7F4FF97
:104AB00006462C882046FFF7E9FF07466D88284602
:104AC000FFF7E4FFB4F5C86F14D8B5F5C86F13D875
:104AD000B54204D00388B34201D000200BE0084B5C
:104AE0005B68BB420AD07B88B34201D0002002E061
:104AF000012000E00020F8BD0020FCE70120FAE7DB
:104B0000F404002038B50446354B1B68834240D876
:104B1000334B5B68A34244D92379002B49D12388C6
:104B2000B3F5C86F4DD82088FFF7B0FF844216D088
:104B30000379A3B92A4B5B68834210D0284B9B684A
:104B4000834246D0038823800088B0F5C86F06D022
:104B5000FFF79CFF05462046FFF79EFF68806088B0
:104B6000FFF794FF0546844212D0037983B91C4BAA
:104B70009B68A34230D023882B802088B0F5C86F73
:104B800006D0FFF783FF04462846FFF785FF6080C5
:104B900038BD144B40F2DF121349144808F0A8FB4B
:104BA000B6E7104B4FF4F0721149104808F0A0FB23
:104BB000B2E70C4B40F2E1120E490C4808F098FBAA
:104BC000ADE7084B4FF4F2720B49084808F090FB30
:104BD000A9E7034B9C60B5E7014B9860CBE700BFAA
:104BE000F4040020E8EC000818ED0008B4EA00081E
:104BF00030ED00084CED000868ED000870B50A4C77
:104C000024F00304094E34604FF4C8652580002366
:104C1000638023712846FFF739FF70600123037119
:104C200005804580B46070BDA33C0020F4040020E2
:104C3000002844D038B5044610F0030F1FD1A0F16E
:104C400008051F4B1B68AB4221D800F10C031C4A1E
:104C5000526893421BD810F8043C03B32846FFF770
:104C600023FF20B3002304F8043C154B9B68AB42A0
:104C700001D9134B9D602846FFF744FF0EE0114B0E
:104C800040F273221049114808F032FB06E00D4B48
:104C900040F27F220E490D4808F02AFB38BD094B2F
:104CA0004FF423720B49094808F022FBF6E7054B45
:104CB00040F295220849054808F01AFBEEE77047D4
:104CC000F4040020E8EC000894ED0008B4EA0008C1
:104CD000B8ED0008D4ED0008FCED00082DE9F8431C
:104CE0000546CC1CA4B224F00304A4B20B2C00D8BB
:104CF0000C248C422CBF00210121B4F5C86F88BF61
:104D000041F00101002940F095804D4B1B68AB42FA
:104D100003D84B4B5B68AB4206D84A4B40F2D222D9
:104D200049494A4808F0E4FA454B1B68AB4200F297
:104D30008280434B5B68AB427DD9A5F10800FFF749
:104D4000ABFE064635F8088CA8EB00081FFA88F879
:104D5000A8F108081FFA88F8444529D844456DD8B9
:104D600069D035F8087C3846FFF790FE8146037914
:104D7000002B33D1B7F5C86F22D0B9F80070344496
:104D8000A4B20834A4B22E4B9B684B4520D02046D9
:104D9000FFF77CFE002303710780468025F8084C4E
:104DA0000088B0F5C86F46D0FFF770FE448042E03F
:104DB000244B4FF439722649244808F099FACDE77C
:104DC000204B40F2F5222349204808F091FAD4E71D
:104DD0002046FFF75BFE1A4B9860D8E704F11403F6
:104DE000434528D83444A4B20834A4B2B7F5C86FF8
:104DF00018D02046FFF74AFE114B9B68834201D929
:104E00000F4B98600023037135F8083C03804680FF
:104E100025F8084C0088B0F5C86F0CD0FFF736FEB7
:104E2000448008E0074B40F216320A49074808F070
:104E30005FFADEE700252846BDE8F8830025FAE79B
:104E4000F4040020E8EC000830EE0008B4EA0008A2
:104E500048EE000868EE0008002800F09D802DE96B
:104E6000F0410346C61CB6B226F00306B6B20B2EBE
:104E700000D80C269E422CBF00230123B6F5C86F34
:104E800088BF43F00103002B40F08880444B9868B2
:104E9000FFF702FE04464BE0424B40F287324249A4
:104EA000424808F025FA61E0012303713C4B986801
:104EB000A8420FD02F440837394B5B689F421ED859
:104EC00015F0030423D154BB05F1080062E000880B
:104ED000FFF7DCFD03791BB1314A52688242F6D1FB
:104EE0002F4A906052688242E4D0002BE2D02D4BD2
:104EF00040F2B5322E492D4808F0FAF9DAE7294B8D
:104F000040F2BA322B49294808F0F2F9D8E7254B8C
:104F10004FF46F722849254808F0EAF9D3E7214B8E
:104F200040F2BE322549214808F0E2F9CCE72C884E
:104F3000A0463746C6F5C8639C422AD22046FFF7F2
:104F4000A5FD05460379002BF1D10388A3EB0803E7
:104F5000083BBB42EBD307F114029342A4D326448F
:104F6000B6B20836B6B2B6F5C86F95D03046FFF780
:104F70008DFD002303712B88038044802E80012344
:104F80002B710088B0F5C86F90D0FFF77FFD468089
:104F90008CE70020BDE8F081002070470020F9E791
:104FA000F4040020E8EC000868EE0008B4EA000809
:104FB0007CEE000898EE0008C8EE0008F8EE000845
:104FC00010B583681C6874B122681A6014F0030F6E
:104FD00001D1204610BD054B40F219120449054885
:104FE00008F086F9F5E70024F3E700BF1CEF00089E
:104FF0004CEF0008B4EA000838B505460C4611F03D
:10500000030F05D1AB681B682360AB681C6038BD1B
:10501000034B40F26D120349034808F069F9F1E7C8
:105020001CEF000870EF0008B4EA00088368002253
:105030001A604368033323F0030307E081680968BB
:10504000196081680B6001880B44013241889142EC
:10505000F4DC704710B5002406E0054B53F824003B
:10506000FFF7E4FF0134A4B2082CF6D910BD00BF4D
:105070002CE9000808B5082805D8074B53F820008C
:10508000FFF79EFF08BD054B40F257120449054843
:1050900008F02EF90020F5E72CE900081CEF0008C5
:1050A000A4EF0008B4EA000808B5082806D821B122
:1050B000064B53F82000FFF79FFF08BD044B4FF449
:1050C000D5720449044808F013F9F6E72CE9000802
:1050D0001CEF0008C4EF0008B4EA00080B688268FF
:1050E000934205D011B18360012070470023FAE795
:1050F000002070470B68C268934205D011B1C360AD
:10510000012070470023FAE7002070476FF00B0082
:10511000704738B504460D4601F070FA294620461E
:1051200005F0ACF938BD000038B50D46044630B185
:1051300094F8313003F00502052A08D038BD0B4B36
:1051400040F26D320A490B4808F0D2F8F0E715F04A
:10515000010FF3D06268002AF0D013F0080FEDD0F1
:10516000211D204606F02AFEE8E700BFE0EF000818
:1051700014F00008B4EA000870B582B0054616467F
:105180000C46A9B1E6B122686B689A4222D002A906
:1051900041F8042D33603046FFF7BBFFC4B12368EC
:1051A0006B6001212846FFF7BFFF012002B070BDF0
:1051B000094B40F2CB120949094808F099F8E1E798
:1051C000054B4FF4E6720549054808F091F8DAE717
:1051D0000023E5E70020E9E7E0EF000838F00008E9
:1051E000B4EA0008704700002DE9F04182B005469E
:1051F00017461E460C46D9B1E7B1EEB10CB1236893
:10520000E3B901AA21462846FFF7B6FF4FF001088F
:10521000002239462846FFF761FF00223146284622
:10522000FFF768FFB8F1000F0BD002B0BDE8F081C6
:10523000074CE1E7064FE0E7054EDFE74FF00008D7
:10524000E6E701AA21462846FFF796FFEDE700BFF3
:1052500044EA000870B5059C064618B3002C2AD015
:10526000002931D0002A31D0002B31D000207060CD
:10527000B060F060364D7561308586F8310070623F
:10528000F061049830623348007886F8340006985C
:1052900030613046FFF7A8FF3046A04700283ED0D7
:1052A000002050E02C4B40F227122C492C4808F0EB
:1052B0001FF8304647E0284B4FF49472294928489C
:1052C00008F016F800203EE02749CBE7264ACBE756
:1052D000254BCBE7002386F8343024E01E4B40F208
:1052E0008B1222491E4808F003F809E094F8342094
:1052F00096F834309A420ED024687CB1B442EDD096
:105300000135FF2DF2DD144B40F28D12184914487F
:1053100007F0EEFFEAE7013386F834303CB196F847
:105320003430FF2BD6D0134B1C680025E5E796F8E8
:105330003430FE2B08D00133064A13700D4B1A6827
:1053400032601E60304670BD024B00221A70F5E7D5
:105350000D51000824050020E0EF0008E0F00008EF
:10536000B4EA0008FCF0000844EA000820F1000854
:1053700034F10008DC710020014B1860704700BF59
:10538000E071002008B528B190F8313013F0010F1A
:1053900008D008BD074B4FF454720749074807F07F
:1053A000A7FFF6E743F0010380F831300321FFF750
:1053B000BBFEEEE7E0EF000864F10008B4EA000885
:1053C00008B560B190F8313013F0010F06D003F04A
:1053D000FE0380F8313013F0080F08D108BD054BEB
:1053E00040F29B320449054807F082FFF6E706F0D9
:1053F00065FCF3E7E0EF000880F10008B4EA00087C
:1054000000B1C16170470000024658B1064B1868F0
:1054100038B190F834300133DBB2934203D00068E6
:10542000F6E7704700207047DC710020014B012235
:105430001A707047E471002010B4002404604160C9
:1054400002814381BDF8043003739DF80830437333
:1054500001238373C4735DF8044B704770B50C4629
:1054600016460546E8B1B4F5803F34BF002301235A
:10547000002D08BF012323BB2CB3A2B22B891344F8
:105480009BB2934221D395F90C10002911DBF6B1A0
:1054900069680C1B6C6069890A446A812B81002051
:1054A00010E00C4B40F2DF120B490C4807F020FFD4
:1054B000D9E769680C1B05F11001A142EAD9012066
:1054C00000E0012070BD0020FCE70120FAE7012088
:1054D000F8E700BFE8F10008800F0108B4EA00080F
:1054E00008B5064B00221A70054B186828B1436FA7
:1054F0000BB9C068FAE700F0D1FE08BDE4710020E6
:10550000EC710020F0B583B007460E461446412AE0
:1055100018BF012A0FD10720FFF7ACFD054638B1AF
:10552000002301930094334632463946FFF784FF47
:10553000284603B0F0BD044B4FF4A572034904485C
:1055400007F0D6FEE7E700BFE8F1000818F2000810
:10555000B4EA000870B582B0069C033020F0030066
:105560000E18BDF81C50AE420FD804B104441846C2
:1055700013460A460546022101910093134621462F
:10558000FFF75AFF284602B070BD0025FAE708B5BC
:105590000022FFF763FF08BD38B50D460446B8B1D9
:1055A000B5F5803F34BF00230123002C08BF012341
:1055B000FBB905B3AAB26389934211D361680D4464
:1055C00065609B1A638123899A1A2281002011E069
:1055D0000A4B40F24B220A490A4807F089FEDFE7EE
:1055E000064B40F255220849064807F081FE01208B
:1055F00000E0012038BD0020FCE700BFE8F1000812
:10560000800F0108B4EA00082CF2000808B5002950
:1056100002DBFFF723FF08BD4942FFF7BDFFFAE7B2
:1056200008B50122FFF7F2FF08BD000070B510B108
:105630000446002517E0284B4FF4377227492848C5
:1056400007F056FE0025284670BD234B40F2F1229C
:105650002449234807F04CFE0AE023692046984776
:105660000135EDB23446002CEDD0A37B002BECD0FD
:10567000A37B013BDBB2A373002BE4D12668237B21
:1056800003F00F03627B12F0020F0AD02369002B94
:10569000E3D1114B40F2FF221349114807F028FED5
:1056A000DBE7022B06D0012B09D06BB92046FFF7B0
:1056B000BFFAD5E721460820FFF7F6FCD0E72146E0
:1056C0000720FFF7F1FCCBE7034B40F20F3207490D
:1056D000034807F00DFEC3E7E8F10008800F01085A
:1056E000B4EA00084CF2000864F2000888F20008EE
:1056F0002DE9F04782B00E469046412A46D0044636
:1057000085B237D9B2F5C17F4AD0B2F5207F33D107
:10571000033525F00305ADB2CA1C93B223F0030391
:105720001D44ADB205F1100080B222F00302954293
:105730007BD382427CD8FFF78FFB814660B304F1B4
:1057400010010144033100230193CDF8008033465A
:10575000324621F00301FFF76FFED9F8043013F051
:10576000030F19D0344B40F223123449344807F068
:10577000BFFD11E0012A09D02F4B40F22712314919
:105780002F4807F0B5FD4FF0000905E042463146CD
:105790000020FFF7B7FE8146484602B0BDE8F0871B
:1057A0004FF0000AD14614E0FFF740FEB9F1000FB8
:1057B000F2D04846FFF73AFFB946EDE7B9F1000FDE
:1057C00031D0CAF80070361BB6B20025BA46002E9A
:1057D000E2D00820FFF74EFC07460028E4D0EC1C7E
:1057E00024F00304A4B2C4F51474A4B2B44228BFD4
:1057F000344605F110010144033100230193CDF833
:1058000000802346324621F00301FFF715FE7B6836
:1058100013F0030FD2D0084B40F201120A49084896
:1058200007F066FDCAE7B946CDE74FF00009B3E7D8
:105830004FF00009B0E700BFE8F1000800F30008EE
:10584000B4EA00082CF300089CF2000870B50D467D
:105850000446B8B12689AE422ED9761BB6B261890C
:10586000A94217D2691A8DB223899B1B2381246810
:10587000002CF4D11A4B40F2AF121A491A4807F023
:1058800037FDECE7164B4FF4CC721849164807F079
:105890002FFDDFE7237B13F00F0F05D1A94203D0C3
:1058A000637B13F0020F08D065812581206808B161
:1058B000FFF7BCFE0023236070BD63681B1BE91863
:1058C00089B22046FFF70AFA04460028ECD1044BBF
:1058D00040F2BD120649044807F00AFDE4E700BFA4
:1058E000E8F1000860F30008B4EA000848F3000893
:1058F00078F30008002302E001339BB2006800281F
:10590000FAD118467047000070B108B5837B0133A7
:10591000DBB2837303B108BD044B40F24232044949
:10592000044807F0E5FCF6E7704700BFE8F100081F
:1059300094F30008B4EA000838B504460D46B1FAFD
:1059400081F14909002808BF012161B1154B40F2DE
:105950005A321549154807F0CBFC19E023892989EB
:105960000B44238114462268002AF7D122896389D7
:105970009A420ED1236833B10A4B40F263320C498C
:105980000A4807F0B5FC23892A891344238125603E
:1059900038BD044B40F262320649044807F0A8FCC7
:1059A000E8E700BFE8F10008A8F30008B4EA00083F
:1059B00010F40008E0F3000810B50C46FFF7BCFF38
:1059C0002046FFF7A1FF10BD2DE9F0410C46B1FACA
:1059D00081F14909002808BF012139B9054602892A
:1059E00023899A4202D30027B8463CE03B4B40F261
:1059F000CA323B493B4807F07BFC6FF00F006AE07E
:105A0000364B40F2D9323849364807F071FC3EE057
:105A1000324B40F2DA323549324807F069FC39E05E
:105A20002D68231C18BF0123002D18BF002313B9B4
:105A30004FF0000836E0294B4FF479722C49294881
:105A400007F056FC6FF00F0045E023687BB3234B53
:105A500040F2EA322749234807F04AFC6FF005007C
:105A600039E0002C36D06E89A6EB08066389DB1B73
:105A70009E4200D31E4668686168324639444044FD
:105A800007F023FCB04437446B894345B8D363899E
:105A9000BB42BDD36389BB4201D8246800276B8910
:105AA0004345BDD01CB1628923899A42CDD0002DD7
:105AB000D7D06A892B899A42D3D12B68002BD0D0BA
:105AC000064B40F2EF320B49064807F011FC6FF02D
:105AD000050000E00020BDE8F08100BFE8F100080B
